:100000000C94A7000C94AC0B0C94C4000C94C4008A
:100010000C94C4000C94C4000C94C4000C94C40050
:100020000C948F0B0C94C4000C94C4000C94C4006A
:100030000C94C4000C94C4000C94C4000C94C40030
:100040000C94C4000C94C4000C94C4000C94C40020
:100050000C94C40000407A10F35A00A0724E1809A4
:100060000010A5D4E80000E87648170000E40B541F
:10007000020000CA9A3B000000E1F50500008096EE
:100080009800000040420F000000A0860100000020
:10009000102700000000E8030000000064000000DA
:1000A00000000A00000000000100000000002C76A3
:1000B000D888DC674F0823DFC1DFAE59E1B1B796BE
:1000C000E5E3E453C63AE651997696E8E6C284261B
:1000D000EB898C9B62ED407C6FFCEFBC9C9F40F2F7
:1000E000BAA56FA5F490055A2AF75C936B6CF96773
:1000F0006DC11BFCE0E40D47FEF520E6B500D0ED38
:10010000902E0300943577050080841E080000209F
:100110004E0A000000C80C333333330F986E12833D
:100120001141EF8D2114893BE65516CFFEE6DB1811
:10013000D1844B381BF77C1D901DA4BBE4242032D6
:1001400084725E228100C9F124ECA1E53D271124CF
:100150001FBECFE5D4E0DEBFCDBF11E0A0E6B0E02A
:10016000E8E9F4E302C005900D92A238B107D9F78F
:1001700011E0A2E8B1E001C01D92A638B107E1F795
:100180000E94D00D0C944A1A0C940000EF92FF923A
:100190000F931F937B018C0120E030E040E05FE48F
:1001A0000E94720488238CF0C801B70120E030E07F
:1001B00040E05FE40E943E020E9430059B01AC01DA
:1001C000205030404040504806C0C801B7010E944E
:1001D00030059B01AC01B901CA011F910F91FF903D
:1001E000EF900895A0E0B0E0E8EFF0E00C94A617DF
:1001F000DC012B01FA019C91923008F439C1EB012A
:100200008881823008F433C1943069F4843009F075
:100210002FC111969C9111978981981709F428C1D3
:10022000AAE7B0E025C1843009F421C18230A9F4E5
:10023000923009F01DC19A01AD0188E0EA010990F0
:10024000AE01E90109929E018150C1F7E201898165
:1002500011969C918923818308C1923009F407C1CA
:1002600012962D903C901397EB018A819B811496F6
:10027000AD90BD90CD90DC901797EC80FD800E8105
:100280001F819101281B390BB90137FF04C0662774
:100290007727621B730B603271050CF061C0121678
:1002A00013066CF537014801062E04C09694879416
:1002B000779467940A94D2F721E030E040E050E070
:1002C00004C0220F331F441F551F6A95D2F72150D7
:1002D0003040404050402E213F21402351232115E2
:1002E00031054105510521F021E030E040E050E0CA
:1002F00079018A01E628F728082919293CC0232B0F
:10030000D1F1260E371E35014601062E04C0969403
:100310008794779467940A94D2F721E030E040E024
:1003200050E004C0220F331F441F551F6A95D2F7B7
:1003300021503040404050402A213B214C215D213A
:10034000211531054105510521F021E030E040E063
:1003500050E059016A01A628B728C828D9280BC03F
:10036000821593052CF01C01AA24BB24650103C04F
:10037000EE24FF24870111969C91D20111968C9155
:10038000981709F445C0992339F0A80197012A1953
:100390003B094C095D0906C0A60195012E193F09CC
:1003A000400B510B57FD08C01182338222822483F7
:1003B0003583468357831DC081E081833382228247
:1003C00088279927DC01821B930BA40BB50B848330
:1003D0009583A683B7830DC0220F331F441F551F7B
:1003E0002483358346835783828193810197938346
:1003F00082832481358146815781DA01C9010197C1
:10040000A109B1098F5F9F4FAF4FBF4328F30BC0C6
:10041000918333822282EA0CFB1C0C1D1D1DE48299
:10042000F5820683178383E08083248135814681AA
:10043000578157FF1AC0C901AA2797FDA095BA2F67
:1004400081709070A070B07056954795379527953C
:10045000822B932BA42BB52B84839583A683B78300
:1004600082819381019693838283DF0101C0D2014F
:10047000CD01CDB7DEB7E2E10C94C217A0E2B0E047
:10048000E4E4F2E00C94B21769837A838B839C8353
:100490002D833E834F835887E9E0EE2EF12CEC0E3E
:1004A000FD1ECE010196B7010E94A8068E010F5EC7
:1004B0001F4FCE010596B8010E94A8068A8991E0D7
:1004C00089278A8BC701B801AE01475E5F4F0E9442
:1004D000F2000E94D305A096E6E00C94CE17A0E2AD
:1004E000B0E0E5E7F2E00C94B21769837A838B837E
:1004F0009C832D833E834F835887F9E0EF2EF12CA8
:10050000EC0EFD1ECE010196B7010E94A8068E01D9
:100510000F5E1F4FCE010596B8010E94A806C701C5
:10052000B801AE01475E5F4F0E94F2000E94D30502
:10053000A096E6E00C94CE17A0E2B0E0E2EAF2E08A
:100540000C94A61769837A838B839C832D833E83C7
:100550004F835887CE010196BE01675F7F4F0E948F
:10056000A806CE010596BE016F5E7F4F0E94A806C9
:100570009985923088F089898230C8F0943019F4D6
:10058000823051F404C0843029F4923081F48AE737
:1005900090E0C6C0923049F420E09A858A89981389
:1005A00021E02A87CE010996BBC0823049F420E0C1
:1005B0009A858A89981321E02A8BCE014196B0C092
:1005C0002D843E844F8458886D887E888F88988CCF
:1005D000EE24FF248701AA24BB24650140E050E0FB
:1005E00060E070E0E0E0F0E0C10181709070892B84
:1005F000E9F0E60CF71C081D191D9A01AB012A0D44
:100600003B1D4C1D5D1D80E090E0A0E0B0E0E614D5
:10061000F7040805190520F481E090E0A0E0B0E0BF
:10062000BA01A901480F591F6A1F7B1FAA0CBB1CE6
:10063000CC1CDD1C97FE08C081E090E0A0E0B0E09B
:10064000A82AB92ACA2ADB2A3196E032F10549F0F4
:10065000660C771C881C991C5694479437942794F1
:10066000C3CFFA85EA892B893C898B859C85280F25
:10067000391F2E5F3F4F17C0CA0181709070892BC0
:1006800061F016950795F794E79480E090E0A0E07C
:10069000B0E8E82AF92A0A2B1B2B7695679557951F
:1006A00047952F5F3F4F77FDE7CF0CC0440F551F95
:1006B000661F771F17FD4160EE0CFF1C001F111F06
:1006C00021503040403090E0590790E0690790E4B5
:1006D000790760F32B8F3C8FDB01CA018F77907015
:1006E000A070B07080349105A105B10561F447FD9B
:1006F0000AC0E114F1040105110529F0405C5F4FC7
:100700006F4F7F4F40781A8EFE1711F081E08A8F6D
:100710004D8F5E8F6F8F78A383E0898FCE014996CE
:100720000E94D305A096E2E10C94C217A8E1B0E0C4
:10073000ECE9F3E00C94AE1769837A838B839C8396
:100740002D833E834F835887B9E0EB2EF12CEC0EBE
:10075000FD1ECE010196B7010E94A8068E010F5E14
:100760001F4FCE010596B8010E94A80629852230A8
:1007700008F47EC03989323010F4B8017CC08A8513
:100780009A8989278A87243011F0223031F423177F
:1007900009F06EC06AE770E06EC0343039F41D862F
:1007A0001E861F86188A1C861B8604C0323021F4E0
:1007B00084E08987B7015FC02B853C858B899C8944
:1007C000281B390B3C872B87ED84FE840F85188905
:1007D000AD88BE88CF88D88CEA14FB040C051D05B3
:1007E00040F4EE0CFF1C001F111F215030403C87CD
:1007F0002B8720E030E040E050E080E090E0A0E097
:10080000B0E460E070E0EA14FB040C051D0540F064
:10081000282B392B4A2B5B2BEA18FB080C091D09E6
:10082000B695A79597958795EE0CFF1C001F111F95
:100830006F5F7F4F6F31710531F7DA01C9018F7733
:100840009070A070B07080349105A105B10561F47D
:1008500027FD0AC0E114F1040105110529F0205C0F
:100860003F4F4F4F5F4F20782D873E874F87588BE4
:10087000BE01675F7F4FCB010E94D3056896EAE017
:100880000C94CA17A8E1B0E0E8E4F4E00C94B217C5
:1008900069837A838B839C832D833E834F83588720
:1008A00089E0E82EF12CEC0EFD1ECE010196B70179
:1008B0000E94A8068E010F5E1F4FCE010596B8015B
:1008C0000E94A8068985823040F08989823028F00C
:1008D000C701B8010E94200701C08FEF6896E6E0CB
:1008E0000C94CE17A8E1B0E0E8E7F4E00C94B2175E
:1008F00069837A838B839C832D833E834F835887C0
:1009000089E0E82EF12CEC0EFD1ECE010196B70118
:100910000E94A8068E010F5E1F4FCE010596B801FA
:100920000E94A8068985823040F08989823028F0AB
:10093000C701B8010E94200701C08FEF6896E6E06A
:100940000C94CE17A8E1B0E0E8EAF4E00C94B217FA
:1009500069837A838B839C832D833E834F8358875F
:1009600089E0E82EF12CEC0EFD1ECE010196B701B8
:100970000E94A8068E010F5E1F4FCE010596B8019A
:100980000E94A8068985823040F08989823028F04B
:10099000C701B8010E94200701C081E06896E6E027
:1009A0000C94CE17A8E0B0E0E8EDF4E00C94AF179B
:1009B0009B01AC0183E08983DA01C9018827B7FD77
:1009C00083959927AA27BB27B82E21153105410504
:1009D000510519F482E089833AC08823A9F02030B8
:1009E00080E0380780E0480780E8580729F460E095
:1009F00070E080E09FEC30C0EE24FF248701E21A13
:100A0000F30A040B150B02C079018A018EE1C82E8E
:100A1000D12CDC82CB82ED82FE820F831887C80145
:100A2000B7010E94840501971816190684F4082E50
:100A300004C0EE0CFF1C001F111F0A94D2F7ED82B8
:100A4000FE820F831887C81AD90ADC82CB82BA8249
:100A5000CE0101960E94D3052896E9E00C94CB17AD
:100A6000ACE0B0E0E6E3F5E00C94B61769837A8376
:100A70008B839C83CE010196BE016B5F7F4F0E94EA
:100A8000A8068D81823061F1823050F1843021F4EA
:100A90008E81882351F12EC02F81388537FD20C0EB
:100AA0006E812F3131051CF06623F9F023C08EE1F1
:100AB00090E0821B930B29853A854B855C8504C0A9
:100AC00056954795379527958A95D2F76623B1F0C5
:100AD00050954095309521953F4F4F4F5F4F0EC039
:100AE00020E030E040E050E009C02FEF3FEF4FEF53
:100AF0005FE704C020E030E040E050E8B901CA01FF
:100B00002C96E2E00C94D217EF92FF920F931F9372
:100B10007B018C0180E0E81680E0F80681E00807A0
:100B200080E0180788F48FEFE816F104010511053D
:100B300031F028F088E090E0A0E0B0E017C080E05D
:100B400090E0A0E0B0E012C080E0E81680E0F80697
:100B500080E0080781E0180728F088E190E0A0E035
:100B6000B0E004C080E190E0A0E0B0E020E230E03E
:100B700040E050E0281B390B4A0B5B0B04C0169574
:100B80000795F794E7948A95D2F7F701EE57FF4F50
:100B90008081281B310941095109C9011F910F9119
:100BA000FF90EF900895DF92EF92FF920F931F93C3
:100BB000FC01E480F58006811781D180808182303C
:100BC00048F480E090E0A0E1B0E0E82AF92A0A2B9E
:100BD0001B2BA5C0843009F49FC0823021F4EE2481
:100BE000FF24870105C0E114F1040105110519F482
:100BF000E0E0F0E096C0628173819FEF6238790790
:100C00000CF05BC022E83FEF261B370B2A31310581
:100C10002CF020E030E040E050E02AC0B801A7010D
:100C2000022E04C076956795579547950A94D2F79A
:100C300081E090E0A0E0B0E004C0880F991FAA1FF7
:100C4000BB1F2A95D2F70197A109B1098E219F21D7
:100C5000A023B1230097A105B10521F081E090E028
:100C6000A0E0B0E09A01AB01282B392B4A2B5B2B7B
:100C7000DA01C9018F779070A070B070803491054F
:100C8000A105B10539F427FF09C0205C3F4F4F4F44
:100C90005F4F04C0215C3F4F4F4F5F4FE0E0F0E0FB
:100CA0002030A0E03A07A0E04A07A0E45A0710F07D
:100CB000E1E0F0E079018A0127C06038710564F550
:100CC000FB01E158FF4FD801C7018F779070A070EA
:100CD000B07080349105A105B10539F4E7FE0DC06F
:100CE00080E490E0A0E0B0E004C08FE390E0A0E0FA
:100CF000B0E0E80EF91E0A1F1B1F17FF05C016956E
:100D00000795F794E794319687E016950795F79441
:100D1000E7948A95D1F705C0EE24FF248701EFEF11
:100D2000F0E06E2F679566276795902F9F77D79491
:100D3000DD24D7948E2F8695492F462B582F5D2979
:100D4000B701CA011F910F91FF90EF90DF900895B6
:100D5000FC01DB01408151812281622F6F7770E0BD
:100D6000221F2227221F9381892F880F822B282F51
:100D700030E0991F9927991F11969C93119721157F
:100D80003105A9F5411551056105710511F482E0A0
:100D900037C082E89FEF13969C938E9312979A0127
:100DA000AB0167E0220F331F441F551F6A95D1F72F
:100DB00083E08C930DC0220F331F441F551F1296E2
:100DC0008D919C911397019713969C938E931297F4
:100DD000203080E0380780E0480780E4580758F367
:100DE00014962D933D934D935C93179708952F3F41
:100DF000310579F4411551056105710519F484E057
:100E00008C93089564FF03C081E08C9312C01C9200
:100E100010C02F57304013963C932E93129783E0C7
:100E20008C9387E0440F551F661F771F8A95D1F773
:100E3000706414964D935D936D937C93179708950A
:100E40001F93DC01FB019C91923008F447C0808124
:100E5000823008F443C0943051F411961C918430D0
:100E600099F58181682F70E0611B71093FC0843062
:100E700021F0923031F48230B9F18181882389F1F7
:100E80002DC011961C9111978230F1F081811817B5
:100E9000D9F412962D913C911397828193818217F8
:100EA000930794F028173907BCF014968D919D9103
:100EB0000D90BC91A02D2481358146815781281742
:100EC00039074A075B0718F4112341F00AC082175B
:100ED0009307A407B50740F4112319F061E070E00F
:100EE00005C06FEF7FEF02C060E070E0CB011F91A3
:100EF0000895DF93CF93CDB7DEB7AFE5B0E0EFE570
:100F0000F0E0808180688C93E5E5F0E083E0808309
:100F1000ABE5B0E0EBE5F0E0808180648C93CF91AD
:100F2000DF910895DF93CF93CDB7DEB7A7970FB6C4
:100F3000F894DEBF0FBECDBF8FA3EBE3F0E08FA12F
:100F40008083A5E3B0E0E5E3F0E080818F798C93C6
:100F5000A5E3B0E0E5E3F0E0808180618C9380E080
:100F600090E0A0E8BFE38BA39CA3ADA3BEA36BA1BD
:100F70007CA18DA19EA12BEA3AEA4AE250E40E94AC
:100F80009C02DC01CB018F8F98A3A9A3BAA36F8D1C
:100F900078A189A19AA120E030E040E85FE30E94B7
:100FA000A20488231CF481E08E8F91C06F8D78A1FC
:100FB00089A19AA120E030E04FE753E40E94420467
:100FC00018160CF07BC06BA17CA18DA19EA120E026
:100FD00030E04AE754E40E949603DC01CB018A8F9B
:100FE0009B8FAC8FBD8F6A8D7B8D8C8D9D8D20E00E
:100FF00030E04AEF54E40E949C02DC01CB018E8B6E
:101000009F8BA88FB98F6E897F89888D998D20E0FD
:1010100030E040E85FE30E94A20488232CF481E0E2
:1010200090E09D8B8C8B3FC06E897F89888D998DD8
:1010300020E03FEF4FE757E40E94420418164CF5BA
:101040006A8D7B8D8C8D9D8D20E030E040E251E4F7
:101050000E949C02DC01CB01BC01CD010E94C600B4
:10106000DC01CB019D8B8C8B0FC088EC90E09B8BBF
:101070008A8B8A899B890197F1F79B8B8A8B8C8954
:101080009D8901979D8B8C8B8C899D89009769F731
:1010900024C06E897F89888D998D0E94C600DC01ED
:1010A000CB019D8B8C8B8C899D89998B888B8889B2
:1010B00099890197F1F7998B888B0FC06F8D78A173
:1010C00089A19AA10E94C600DC01CB018E8F8E8D72
:1010D0008F878F858A95F1F78F87A5E3B0E0E5E3E9
:1010E000F0E080818F7E8C9380E090E0A0E4B0E41B
:1010F0008B879C87AD87BE876B857C858D859E851C
:1011000020E030E04AEF54E40E949C02DC01CB0175
:101110008F839887A987BA876F81788589859A8513
:1011200020E030E040E85FE30E94A20488232CF432
:1011300081E090E09E838D833FC06F8178858985B3
:101140009A8520E03FEF4FE757E40E9442041816CB
:101150004CF56B857C858D859E8520E030E040E2F6
:1011600051E40E949C02DC01CB01BC01CD010E9434
:10117000C600DC01CB019E838D830FC088EC90E01C
:101180009C838B838B819C810197F1F79C838B835C
:101190008D819E8101979E838D838D819E81009795
:1011A00069F714C06F81788589859A850E94C60089
:1011B000DC01CB019E838D838D819E819A838983FF
:1011C00089819A810197F1F79A838983A7960FB64F
:1011D000F894DEBF0FBECDBFCF91DF910895DF93AE
:1011E000CF93CDB7DEB7A7970FB6F894DEBF0FBE8B
:1011F000CDBF8FA3EBE3F0E08FA18083A5E3B0E048
:10120000E5E3F0E080818F7D8C93A5E3B0E0E5E33A
:10121000F0E0808180658C9380E090E0A0E8BFE3FF
:101220008BA39CA3ADA3BEA36BA17CA18DA19EA10A
:101230002BEA3AEA4AE250E40E949C02DC01CB012C
:101240008F8F98A3A9A3BAA36F8D78A189A19AA122
:1012500020E030E040E85FE30E94A20488231CF411
:1012600081E08E8F91C06F8D78A189A19AA120E035
:1012700030E04FE753E40E94420418160CF07BC0A4
:101280006BA17CA18DA19EA120E030E04AE754E44F
:101290000E949603DC01CB018A8F9B8FAC8FBD8FA0
:1012A0006A8D7B8D8C8D9D8D20E030E04AEF54E47B
:1012B0000E949C02DC01CB018E8B9F8BA88FB98F83
:1012C0006E897F89888D998D20E030E040E85FE36A
:1012D0000E94A20488232CF481E090E09D8B8C8BEB
:1012E0003FC06E897F89888D998D20E03FEF4FE761
:1012F00057E40E94420418164CF56A8D7B8D8C8D44
:101300009D8D20E030E040E251E40E949C02DC012F
:10131000CB01BC01CD010E94C600DC01CB019D8B3D
:101320008C8B0FC088EC90E09B8B8A8B8A899B8981
:101330000197F1F79B8B8A8B8C899D8901979D8BF7
:101340008C8B8C899D89009769F724C06E897F8971
:10135000888D998D0E94C600DC01CB019D8B8C8B02
:101360008C899D89998B888B888999890197F1F758
:10137000998B888B0FC06F8D78A189A19AA10E944B
:10138000C600DC01CB018E8F8E8D8F878F858A956D
:10139000F1F78F87A5E3B0E0E5E3F0E080818F7E91
:1013A0008C9380E090E0A0E8BFE38B879C87AD87BB
:1013B000BE876B857C858D859E8520E030E04AEF79
:1013C00054E40E949C02DC01CB018F839887A9879B
:1013D000BA876F81788589859A8520E030E040E87A
:1013E0005FE30E94A20488232CF481E090E09E83B6
:1013F0008D833FC06F81788589859A8520E03FEF96
:101400004FE757E40E94420418164CF56B857C8523
:101410008D859E8520E030E040E251E40E949C02F0
:10142000DC01CB01BC01CD010E94C600DC01CB0177
:101430009E838D830FC088EC90E09C838B838B818F
:101440009C810197F1F79C838B838D819E8101970D
:101450009E838D838D819E81009769F714C06F8173
:10146000788589859A850E94C600DC01CB019E8320
:101470008D838D819E819A83898389819A81019749
:10148000F1F79A838983A7960FB6F894DEBF0FBE53
:10149000CDBFCF91DF910895DF93CF93CDB7DEB766
:1014A0002E970FB6F894DEBF0FBECDBFA4E3B0E019
:1014B000E4E3F0E0808180678C93EAE3F0E08FEF73
:1014C000808380E090E0A0EAB1E48B879C87AD87C1
:1014D000BE876B857C858D859E8520E030E04AEF58
:1014E00054E40E949C02DC01CB018F839887A9877A
:1014F000BA876F81788589859A8520E030E040E859
:101500005FE30E94A20488232CF481E090E09E8394
:101510008D833FC06F81788589859A8520E03FEF74
:101520004FE757E40E94420418164CF56B857C8502
:101530008D859E8520E030E040E251E40E949C02CF
:10154000DC01CB01BC01CD010E94C600DC01CB0156
:101550009E838D830FC088EC90E09C838B838B816E
:101560009C810197F1F79C838B838D819E810197EC
:101570009E838D838D819E81009769F714C06F8152
:10158000788589859A850E94C600DC01CB019E83FF
:101590008D838D819E819A83898389819A81019728
:1015A000F1F79A83898388E30E9492078CE00E9476
:1015B000920786E00E94920781E00E94920780E8ED
:1015C0000E9492072E960FB6F894DEBF0FBECDBFD5
:1015D000CF91DF910895DF93CF9300D000D0CDB7A6
:1015E000DEB79C838B831A8219820FC029813A81CE
:1015F0008B819C81FC01E20FF31F80810E94EF0828
:1016000089819A8101969A83898329813A818B8184
:101610009C81FC01E20FF31F8081882339F70F9032
:101620000F900F900F90CF91DF910895DF93CF939C
:1016300000D000D0CDB7DEB789836A835C834B834B
:101640008981813031F48A818F7080680E9492078D
:1016500008C08981823029F48A818F70806C0E9451
:1016600092078B819C810E94EB0A0F900F900F9044
:101670000F90CF91DF910895DF93CF93CDB7DEB771
:1016800081E00E94920780E80E949207CF91DF914B
:101690000895DF93CF93CDB7DEB7ABE2B0E0EBE2D6
:1016A000F0E0808182608C93EAE2F0E088E1808360
:1016B000E0E4F0E086E88083E9E2F0E08CE080831B
:1016C000CF91DF910895DF93CF930F92CDB7DEB71F
:1016D0008983ABE2B0E0EBE2F0E080818F7D8C9318
:1016E0008C918823B1F7ECE2F0E0898180830F9040
:1016F000CF91DF910895DF93CF93CDB7DEB7ABE203
:10170000B0E0EBE2F0E080818F778C938C918823BE
:10171000B1F7ECE2F0E08081CF91DF9108951F9264
:101720000F920FB60F9211248F939F93DF93CF9355
:10173000CDB7DEB78091820190918301019690939D
:10174000830180938201CF91DF919F918F910F90C0
:101750000FBE0F901F9018951F920F920FB60F9209
:1017600011242F933F934F935F936F937F938F93A6
:101770009F93AF93BF93EF93FF93DF93CF93CDB737
:10178000DEB7E897DEBFCDBF80E00E947B1680E029
:101790000E94BE1680E090E0AAE7B4E48DAB9EAB59
:1017A000AFABB8AF6DA97EA98FA998AD20E030E0AE
:1017B0004AE753E40E949C02DC01CB0189AB9AAB5F
:1017C000ABABBCAB69A97AA98BA99CA920E030E09E
:1017D00040E85FE30E94A20488232CF481E090E0BB
:1017E00098AB8FA73FC069A97AA98BA99CA920E0D3
:1017F0003FEF4FE757E40E94420418164CF56DA9DD
:101800007EA98FA998AD20E030E040E251E40E942B
:101810009C02DC01CB01BC01CD010E94C600DC01B1
:10182000CB0198AB8FA70FC089E190E09EA78DA751
:101830008DA59EA50197F1F79EA78DA78FA598A9C5
:10184000019798AB8FA78FA598A9009769F714C047
:1018500069A97AA98BA99CA90E94C600DC01CB01C9
:1018600098AB8FA78FA598A99CA78BA78BA59CA5A4
:101870000197F1F79CA78BA7E0E3F0E08081882F28
:1018800090E088709070009709F479C08AEF0E9408
:10189000441784E60E94011780E090E0AAEFB4E4C8
:1018A0008FA398A7A9A7BAA76FA178A589A59AA57C
:1018B00020E030E04AE753E40E949C02DC01CB01C7
:1018C0008BA39CA3ADA3BEA36BA17CA18DA19EA164
:1018D00020E030E040E85FE30E94A20488232CF47B
:1018E00081E090E09AA389A33FC06BA17CA18DA168
:1018F0009EA120E03FEF4FE757E40E9442041816F4
:101900004CF56FA178A589A59AA520E030E040E2CA
:1019100051E40E949C02DC01CB01BC01CD010E947C
:10192000C600DC01CB019AA389A30FC089E190E036
:1019300098A38F8F8F8D98A10197F1F798A38F8F20
:1019400089A19AA101979AA389A389A19AA1009735
:1019500069F710C16BA17CA18DA19EA10E94C60058
:10196000DC01CB019AA389A389A19AA19E8F8D8FB7
:101970008D8D9E8D0197F1F79E8F8D8FFBC0E6E3D5
:10198000F0E08081882F90E080719070009709F4DA
:1019900079C084E60E9444178AEF0E94011780E014
:1019A00090E0AAEFB4E4898F9A8FAB8FBC8F698DDA
:1019B0007A8D8B8D9C8D20E030E04AE753E40E94C5
:1019C0009C02DC01CB018D8B9E8BAF8BB88F6D8918
:1019D0007E898F89988D20E030E040E85FE30E94A7
:1019E000A20488232CF481E090E09C8B8B8B3FC079
:1019F0006D897E898F89988D20E03FEF4FE757E40E
:101A00000E94420418164CF5698D7A8D8B8D9C8D41
:101A100020E030E040E251E40E949C02DC01CB0176
:101A2000BC01CD010E94C600DC01CB019C8B8B8BDD
:101A30000FC089E190E09A8B898B89899A890197F7
:101A4000F1F79A8B898B8B899C8901979C8B8B8B67
:101A50008B899C89009769F78DC06D897E898F89F4
:101A6000988D0E94C600DC01CB019C8B8B8B8B89EF
:101A70009C89988B8F878F8598890197F1F7988B30
:101A80008F8778C084E60E9444178AEF0E9401176E
:101A900080E090E0AAEFB4E48B879C87AD87BE8797
:101AA0006B857C858D859E8520E030E04AE753E498
:101AB0000E949C02DC01CB018F839887A987BA879B
:101AC0006F81788589859A8520E030E040E85FE382
:101AD0000E94A20488232CF481E090E09E838D83F1
:101AE0003FC06F81788589859A8520E03FEF4FE779
:101AF00057E40E94420418164CF56B857C858D8551
:101B00009E8520E030E040E251E40E949C02DC012E
:101B1000CB01BC01CD010E94C600DC01CB019E833C
:101B20008D830FC089E190E09C838B838B819C81A6
:101B30000197F1F79C838B838D819E8101979E8312
:101B40008D838D819E81009769F714C06F817885A0
:101B500089859A850E94C600DC01CB019E838D8316
:101B60008D819E819A83898389819A810197F1F77A
:101B70009A838983E896DEBFCDBFCF91DF91FF9135
:101B8000EF91BF91AF919F918F917F916F915F91F5
:101B90004F913F912F910F900FBE0F901F9018956E
:101BA000EF92FF920F931F93DF93CF93CDB7DEB7E2
:101BB000C65BD0400FB6F894DEBF0FBECDBFE7E3E3
:101BC000F0E081E08083A2E3B0E0E2E3F0E0808136
:101BD00080648C93E4E3F0E08FE08083E5E3F0E061
:101BE0001082A1E3B0E0E1E3F0E080818B7F8C9391
:101BF000A0E3B0E0E0E3F0E080818B7F8C93A1E391
:101C0000B0E0E1E3F0E08081877F8C93A0E3B0E077
:101C1000E0E3F0E08081877F8C93A7E3B0E0E7E327
:101C2000F0E080818F7E8C93A6E3B0E0E6E3F0E005
:101C300080818F7E8C93A7E3B0E0E7E3F0E08081C2
:101C400082608C93A8E3B0E0E8E3F0E080818D7FD0
:101C50008C930E944C0A20E630E081E060E0A9010C
:101C60000E94160B7894E9E5F0E084E08083EFE4CD
:101C7000F0E010820E947907A8E3B0E0E8E3F0E02A
:101C8000808181608C93FE01EF55FF4F80E090E0F2
:101C9000A0E2B1E480839183A283B3838E010356D3
:101CA0001F4FFE01EF55FF4F60817181828193814B
:101CB0002BEA3AEA4AEA5EE30E949C02DC01CB018D
:101CC000F80180839183A283B383FE01E356FF4F23
:101CD000608171818281938120E030E040E85FE3A0
:101CE0000E94A204882334F4FE01E456FF4F81E0F1
:101CF0008083E0C0FE01E356FF4F608171818281E5
:101D0000938120E030E04FE753E40E94420418162C
:101D10000CF0C0C0FE01EF55FF4F608171818281E0
:101D2000938120E030E04AE754E40E949603DC010E
:101D3000CB01FE01E856FF4F80839183A283B383DA
:101D40008E010C561F4FFE01E856FF4F60817181D6
:101D50008281938120E030E04AE753E40E949C02B4
:101D6000DC01CB01F80180839183A283B383FE0160
:101D7000EC56FF4F608171818281938120E030E0D9
:101D800040E85FE30E94A204882344F4FE01EE567B
:101D9000FF4F81E090E09183808364C0FE01EC56A8
:101DA000FF4F608171818281938120E03FEF4FE797
:101DB00057E40E94420418160CF043C0FE01E85696
:101DC000FF4F608171818281938120E030E040E2A9
:101DD00051E40E949C02DC01CB018E010E561F4F84
:101DE000BC01CD010E94C600DC01CB01F80191834A
:101DF00080831FC0FE01E057FF4F89E190E091838F
:101E00008083FE01E057FF4F808191810197F1F7B8
:101E1000FE01E057FF4F91838083DE01AE56BF4F36
:101E2000FE01EE56FF4F80819181019711969C93A0
:101E30008E93FE01EE56FF4F808191810097D1F67F
:101E40004BC08E010E561F4FFE01EC56FF4F6081B6
:101E50007181828193810E94C600DC01CB01F8016F
:101E600091838083DE01A257BF4FFE01EE56FF4FE4
:101E70008081918111969C938E93FE01E257FF4FD2
:101E8000808191810197F1F7FE01E257FF4F918325
:101E9000808322C08E0104561F4FFE01E356FF4F80
:101EA00060817181828193810E94C600DC01CB0137
:101EB000F8018083DE01A357BF4FFE01E456FF4FB8
:101EC00080818C93FE01E357FF4F80818A95F1F763
:101ED000FE01E357FF4F8083A8E3B0E0E8E3F0E0C2
:101EE00080818E7F8C93ECE4F0E011821082EEE42E
:101EF000F0E081E48083E8E5F0E080E28083E8E5DB
:101F0000F0E084E08083E8E5F0E08081882F90E0D5
:101F1000807290700097B9F3ECE4F0E011821082C7
:101F2000EEE4F0E081E08083E8E5F0E080E28083A9
:101F3000E8E5F0E084E08083109283011092820152
:101F4000E8E5F0E08081882F90E080729070009743
:101F5000B9F3E6E4F0E0808191817C0100E010E0DB
:101F60008091820190918301AA2797FDA095BA2FB5
:101F70002FEF3FEF40E050E0BC01CD010E948717FA
:101F8000DC01CB01FE01E755FF4F8E0D9F1DA01F09
:101F9000B11F80839183A283B383FE01E755FF4F76
:101FA00060817181828193810E94D204DC01CB0126
:101FB0008E010B551F4FBC01CD0129E23CE349EED8
:101FC00053E40E949603DC01CB01F80180839183E6
:101FD000A283B383FE01EB55FF4F80819181A281E3
:101FE000B381FE01E355FF4FBC01CD0142E022E089
:101FF0008F010E94DD178E0103551F4FCE018355BF
:102000009F4F0E940718800F911F2BE630E0B90107
:1020100047E050E00E94FE1722E730E082E060E0F7
:10202000A9010E94160B9E0123553F4F82E067E0F5
:10203000A9010E94160BFE01E757FF4F80E090E0D8
:10204000A8E4B3E480839183A283B3838E010B570A
:102050001F4FFE01E757FF4F60817181828193819D
:1020600020E030E04AE753E40E949C02DC01CB010F
:10207000F80180839183A283B383FE01EB57FF4F66
:10208000608171818281938120E030E040E85FE3EC
:102090000E94A204882344F4FE01ED57FF4F81E023
:1020A00090E09183808364C0FE01EB57FF4F608115
:1020B00071818281938120E03FEF4FE757E40E94D6
:1020C000420418160CF043C0FE01E757FF4F608131
:1020D00071818281938120E030E040E251E40E94EE
:1020E0009C02DC01CB018E010D571F4FBC01CD01BD
:1020F0000E94C600DC01CB01F801918380831FC0E0
:10210000FE01EF57FF4F89E190E091838083FE014C
:10211000EF57FF4F808191810197F1F7FE01EF5753
:10212000FF4F91838083DE01AD57BF4FFE01ED5716
:10213000FF4F80819181019711969C938E93FE01B0
:10214000ED57FF4F808191810097D1F627C08E0116
:102150000D571F4FFE01EB57FF4F60817181828148
:1021600093810E94C600DC01CB01F801918380833A
:10217000DE01A158BF4FFE01ED57FF4F80819181D5
:102180008D939C93FE01E158FF4F808191810197CF
:10219000F1F7FE01E158FF4F91838083FE01EB557B
:1021A000FF4F608171818281938120E030E040EABD
:1021B00051E40E94420418163CF48AEF0E947B16F8
:1021C0008AEF0E94BE1658CDFE01EB55FF4F60818D
:1021D00071818281938120E030E040EA51E40E94E5
:1021E000A20488230CF048CD80E00E947B1680E09A
:1021F0000E94BE16FE01E558FF4F80E090E0AAE77E
:10220000B3E480839183A283B3838E0109581F4F67
:10221000FE01E558FF4F608171818281938120E04A
:1022200030E04AE753E40E949C02DC01CB01F80154
:1022300080839183A283B383FE01E958FF4F6081BD
:1022400071818281938120E030E040E85FE30E9469
:10225000A204882344F4FE01EB58FF4F81E090E094
:102260009183808364C0FE01E958FF4F60817181D2
:102270008281938120E03FEF4FE757E40E944204C0
:1022800018160CF043C0FE01E558FF4F60817181C4
:102290008281938120E030E040E251E40E949C0280
:1022A000DC01CB018E010B581F4FBC01CD010E94F8
:1022B000C600DC01CB01F801918380831FC0FE01C1
:1022C000ED58FF4F89E190E091838083FE01ED5846
:1022D000FF4F808191810197F1F7FE01ED58FF4F8B
:1022E00091838083DE01AB58BF4FFE01EB58FF4F57
:1022F00080819181019711969C938E93FE01EB58FA
:10230000FF4F808191810097D1F627C08E010B5835
:102310001F4FFE01E958FF4F6081718182819381D7
:102320000E94C600DC01CB01F80191838083DE01AD
:10233000AF58BF4FFE01EB58FF4F808191818D93C5
:102340009C93FE01EF58FF4F808191810197F1F737
:10235000FE01EF58FF4F918380838AEF0E947B1626
:1023600084E60E94BE16FE01E359FF4F80E090E034
:10237000A6E1B3E480839183A283B3838E010759DE
:102380001F4FFE01E359FF4F60817181828193816C
:1023900020E030E04AE753E40E949C02DC01CB01DC
:1023A000F80180839183A283B383FE01E759FF4F35
:1023B000608171818281938120E030E040E85FE3B9
:1023C0000E94A204882344F4FE01E959FF4F81E0F2
:1023D00090E09183808364C0FE01E759FF4F6081E4
:1023E00071818281938120E03FEF4FE757E40E94A3
:1023F000420418160CF043C0FE01E359FF4F608100
:1024000071818281938120E030E040E251E40E94BA
:102410009C02DC01CB018E0109591F4FBC01CD018B
:102420000E94C600DC01CB01F801918380831FC0AC
:10243000FE01EB59FF4F89E190E091838083FE011B
:10244000EB59FF4F808191810197F1F7FE01EB5924
:10245000FF4F91838083DE01A959BF4FFE01E959E7
:10246000FF4F80819181019711969C938E93FE017D
:10247000E959FF4F808191810097D1F627C08E01E5
:1024800009591F4FFE01E759FF4F60817181828119
:1024900093810E94C600DC01CB01F8019183808307
:1024A000DE01AD59BF4FFE01E959FF4F8081918197
:1024B0008D939C93FE01ED59FF4F8081918101978F
:1024C000F1F7FE01ED59FF4F9183808380E00E9478
:1024D0007B1680E00E94BE16FE01EB55FF4F608127
:1024E0007181828193810E94C600DC01CB018093BF
:1024F0008401FE01E15AFF4F80E090E0A6E1B3E4E1
:1025000080839183A283B3838E01055A1F4FFE01FE
:10251000E15AFF4F608171818281938120E030E038
:102520004AE753E40E949C02DC01CB01F80180835E
:102530009183A283B383FE01E55AFF4F60817181CD
:102540008281938120E030E040E85FE30E94A204B2
:10255000882344F4FE01E75AFF4F81E090E0918325
:10256000808364C0FE01E55AFF4F608171818281E2
:10257000938120E03FEF4FE757E40E944204181692
:102580000CF043C0FE01E15AFF4F608171818281EE
:10259000938120E030E040E251E40E949C02DC01A3
:1025A000CB018E01075A1F4FBC01CD010E94C6000E
:1025B000DC01CB01F801918380831FC0FE01E95A41
:1025C000FF4F89E190E091838083FE01E95AFF4F3C
:1025D000808191810197F1F7FE01E95AFF4F9183C4
:1025E0008083DE01A75ABF4FFE01E75AFF4F80816B
:1025F0009181019711969C938E93FE01E75AFF4FAC
:10260000808191810097D1F627C08E01075A1F4F14
:10261000FE01E55AFF4F60817181828193810E94A2
:10262000C600DC01CB01F80191838083DE01AB5A47
:10263000BF4FFE01E75AFF4F808191818D939C939C
:10264000FE01EB5AFF4F808191810197F1F7FE0166
:10265000EB5AFF4F918380838AEF0E94011784E633
:102660000E944417FE01EF5AFF4F80E090E0A6E180
:10267000B3E480839183A283B3838E01035B1F4FF6
:10268000FE01EF5AFF4F608171818281938120E0CA
:1026900030E04AE753E40E949C02DC01CB01F801E0
:1026A00080839183A283B383FE01E35BFF4F60814C
:1026B00071818281938120E030E040E85FE30E94F5
:1026C000A204882344F4FE01E55BFF4F81E090E023
:1026D0009183808364C0FE01E35BFF4F6081718161
:1026E0008281938120E03FEF4FE757E40E9442044C
:1026F00018160CF043C0FE01EF5AFF4F6081718144
:102700008281938120E030E040E251E40E949C020B
:10271000DC01CB018E01055B1F4FBC01CD010E9486
:10272000C600DC01CB01F801918380831FC0FE014C
:10273000E75BFF4F89E190E091838083FE01E75BD7
:10274000FF4F808191810197F1F7FE01E75BFF4F19
:1027500091838083DE01A55BBF4FFE01E55BFF4FE8
:1027600080819181019711969C938E93FE01E55B88
:10277000FF4F808191810097D1F627C08E01055BC4
:102780001F4FFE01E35BFF4F608171818281938166
:102790000E94C600DC01CB01F80191838083DE0139
:1027A000A95BBF4FFE01E55BFF4F808191818D9357
:1027B0009C93FE01E95BFF4F808191810197F1F7C6
:1027C000FE01E95BFF4F9183808380E00E947B16CE
:1027D00080E00E94BE16FE01ED5BFF4F80E090E0BE
:1027E000A6E1B3E480839183A283B3838E01015C6D
:1027F0001F4FFE01ED5BFF4F6081718182819381EC
:1028000020E030E04AE753E40E949C02DC01CB0167
:10281000F80180839183A283B383FE01FF966081D8
:1028200071818281938120E030E040E85FE30E9483
:10283000A20488232CF481E090E09EAF8DAF46C0C7
:10284000FE01FF96608171818281938120E03FEFDC
:102850004FE757E40E944204181664F5FE01ED5B51
:10286000FF4F608171818281938120E030E040E2FE
:1028700051E40E949C02DC01CB01BC01CD010E940D
:10288000C600DC01CB019EAF8DAF0FC089E190E0A7
:102890009CAF8BAF8BAD9CAD0197F1F79CAF8BAF2D
:1028A0008DAD9EAD01979EAF8DAF8DAD9EAD009766
:1028B00069F716C0FE01FF96608171818281938164
:1028C0000E94C600DC01CB019EAF8DAF8DAD9EADE9
:1028D0009AAF89AF89AD9AAD0197F1F79AAF89AFF9
:1028E0008AEF0E94BE1684E60E947B1680E090E08C
:1028F000A6E1B3E48DAB9EABAFABB8AF6DA97EA93B
:102900008FA998AD20E030E04AE753E40E949C0292
:10291000DC01CB0189AB9AABABABBCAB69A97AA9A3
:102920008BA99CA920E030E040E85FE30E94A2046C
:1029300088232CF481E090E098AB8FA73FC069A971
:102940007AA98BA99CA920E03FEF4FE757E40E94AA
:10295000420418164CF56DA97EA98FA998AD20E008
:1029600030E040E251E40E949C02DC01CB01BC015A
:10297000CD010E94C600DC01CB0198AB8FA70FC030
:1029800089E190E09EA78DA78DA59EA50197F1F7FF
:102990009EA78DA78FA598A9019798AB8FA78FA504
:1029A00098A9009769F714C069A97AA98BA99CA96D
:1029B0000E94C600DC01CB0198AB8FA78FA598A918
:1029C0009CA78BA78BA59CA50197F1F79CA78BA72C
:1029D00080E00E947B1680E00E94BE16FE01EB554F
:1029E000FF4F60817181828193810E94C600DC016A
:1029F000CB018093850180E090E0A6E1B3E48FA352
:102A000098A7A9A7BAA76FA178A589A59AA520E03C
:102A100030E04AE753E40E949C02DC01CB018BA327
:102A20009CA3ADA3BEA36BA17CA18DA19EA120E020
:102A300030E040E85FE30E94A20488232CF481E0A8
:102A400090E09AA389A33FC06BA17CA18DA19EA118
:102A500020E03FEF4FE757E40E94420418164CF580
:102A60006FA178A589A59AA520E030E040E251E465
:102A70000E949C02DC01CB01BC01CD010E94C6007A
:102A8000DC01CB019AA389A30FC089E190E098A350
:102A90008F8F8F8D98A10197F1F798A38F8F89A1C0
:102AA0009AA101979AA389A389A19AA1009769F78E
:102AB00014C06BA17CA18DA19EA10E94C600DC0167
:102AC000CB019AA389A389A19AA19E8F8D8F8D8D09
:102AD0009E8D0197F1F79E8F8D8F8AEF0E9444178C
:102AE00084E60E94011780E090E0A6E1B3E4898FBC
:102AF0009A8FAB8FBC8F698D7A8D8B8D9C8D20E0EA
:102B000030E04AE753E40E949C02DC01CB018D8B4C
:102B10009E8BAF8BB88F6D897E898F89988D20E0D1
:102B200030E040E85FE30E94A20488232CF481E0B7
:102B300090E09C8B8B8B3FC06D897E898F89988DAF
:102B400020E03FEF4FE757E40E94420418164CF58F
:102B5000698D7A8D8B8D9C8D20E030E040E251E4D0
:102B60000E949C02DC01CB01BC01CD010E94C60089
:102B7000DC01CB019C8B8B8B0FC089E190E09A8BA1
:102B8000898B89899A890197F1F79A8B898B8B892F
:102B90009C8901979C8B8B8B8B899C89009769F70B
:102BA00014C06D897E898F89988D0E94C600DC01D2
:102BB000CB019C8B8B8B8B899C89988B8F878F8586
:102BC00098890197F1F7988B8F8780E00E947B1698
:102BD00080E00E94BE1680E090E0A6E1B3E48B871F
:102BE0009C87AD87BE876B857C858D859E8520E023
:102BF00030E04AE753E40E949C02DC01CB018F8362
:102C00009887A987BA876F81788589859A8520E01A
:102C100030E040E85FE30E94A20488232CF481E0C6
:102C200090E09E838D833FC06F81788589859A85EA
:102C300020E03FEF4FE757E40E94420418164CF59E
:102C40006B857C858D859E8520E030E040E251E4F7
:102C50000E949C02DC01CB01BC01CD010E94C60098
:102C6000DC01CB019E838D830FC089E190E09C83C2
:102C70008B838B819C810197F1F79C838B838D8162
:102C80009E8101979E838D838D819E81009769F738
:102C900014C06F81788589859A850E94C600DC0101
:102CA000CB019E838D838D819E819A8389838981C7
:102CB0009A810197F1F79A83898390918501809198
:102CC0008401891740F48AEF0E94BE1684E60E94B0
:102CD0007B160C943C0E909184018091850189179C
:102CE00010F00C943C0E8AEF0E947B1684E60E9442
:102CF000BE160C943C0EDF93CF930F92CDB7DEB788
:102D00008983ECE5F0E089818083E3E5F0E088E405
:102D10008083A3E5B0E0E3E5F0E0808180628C93FE
:102D2000A3E5B0E0E3E5F0E0808182608C93A7E367
:102D3000B0E0E7E3F0E0808188608C93A5E3B0E049
:102D4000E5E3F0E0808181608C93A5E3B0E0E5E30A
:102D5000F0E080818D7F8C93A5E3B0E0E5E3F0E0C7
:102D6000808184608C93A5E3B0E0E5E3F0E08081AE
:102D7000877F8C930F90CF91DF910895DF93CF934E
:102D80000F92CDB7DEB78983E3E4F0E089818083D9
:102D9000E5E4F0E088E48083A5E4B0E0E5E4F0E079
:102DA000808180628C93A5E4B0E0E5E4F0E080816E
:102DB00082608C93A1E3B0E0E1E3F0E08081806881
:102DC0008C93A5E3B0E0E5E3F0E0808181608C9333
:102DD000A5E3B0E0E5E3F0E080818D7F8C93A5E38F
:102DE000B0E0E5E3F0E0808184608C93A5E3B0E09F
:102DF000E5E3F0E08081877F8C930F90CF91DF91A6
:102E00000895DF93CF930F92CDB7DEB78983ECE5BA
:102E1000F0E089818083E3E5F0E088E48083A3E546
:102E2000B0E0E3E5F0E0808180628C93A3E5B0E060
:102E3000E3E5F0E0808182608C93A7E3B0E0E7E314
:102E4000F0E0808188608C93A5E3B0E0E5E3F0E0FA
:102E500080818E7F8C93A5E3B0E0E5E3F0E0808194
:102E600082608C93A5E3B0E0E5E3F0E080818B7FA6
:102E70008C93A5E3B0E0E5E3F0E0808188608C937B
:102E80000F90CF91DF910895DF93CF930F92CDB73D
:102E9000DEB78983E3E4F0E089818083E5E4F0E054
:102EA00088E48083A5E4B0E0E5E4F0E0808180621E
:102EB0008C93A5E4B0E0E5E4F0E0808182608C933F
:102EC000A1E3B0E0E1E3F0E0808180688C93A5E3CA
:102ED000B0E0E5E3F0E080818E7F8C93A5E3B0E085
:102EE000E5E3F0E0808182608C93A5E3B0E0E5E368
:102EF000F0E080818B7F8C93A5E3B0E0E5E3F0E028
:102F0000808188608C930F90CF91DF910895629FAC
:102F1000D001739FF001829FE00DF11D649FE00DD1
:102F2000F11D929FF00D839FF00D749FF00D659F32
:102F3000F00D9927729FB00DE11DF91F639FB00D31
:102F4000E11DF91FBD01CF01112408952F923F9279
:102F50004F925F926F927F928F929F92AF92BF92A9
:102F6000CF92DF92EF92FF920F931F93CF93DF9355
:102F7000CDB7DEB7CA1BDB0B0FB6F894DEBF0FBEB2
:102F8000CDBF09942A88398848885F846E847D84FF
:102F90008C849B84AA84B984C884DF80EE80FD8001
:102FA0000C811B81AA81B981CE0FD11D0FB6F89477
:102FB000DEBF0FBECDBFED010895EF92FF920F93DC
:102FC0001F93F22FF02E47FD02C0E4E001C0E4E1C0
:102FD000242F332727FD309537FF03C030952195E7
:102FE0003F4F4F2D512F0F2FEE2E0E9410188F2D77
:102FF000912F1F910F91FF90EF900895FB01DC013D
:1030000002C001900D9241505040D8F70895FC0144
:1030100001900020E9F7809590958E0F9F1F0895ED
:10302000A9E0B0E0E6E1F8E10C94AA176A01122FDA
:10303000A02EBE2C2BE3201718F42CE3922E02C0F6
:10304000902E9394AE014F5F5F4F27E0092D0E94B1
:103050007219BC018981E82EFF24C7018970907024
:10306000019711F4ADE209C0B1FE02C0ABE205C0A8
:10307000B0FC02C0A0E001C0A0E2E3FE3BC0AA2376
:1030800011F423E001C024E0211710F020E002C079
:10309000121B212FEB2CB4FE02C0322F0AC0F60106
:1030A000322F80E202C0819331503323E1F7C20E08
:1030B000D11CAA2319F0F601A1936F01F6013196F4
:1030C000E2FE05C09EE4D6019C9381E404C09EE626
:1030D000D6019C9381E611968C9391833296DF0101
:1030E000832F90E202C09D9381508823E1F7E30F84
:1030F000F11D40C0E2FE42C0AA2311F423E001C04A
:1031000024E0211710F020E002C0121B212FEB2C2D
:10311000B4FE02C0922F0AC0F601922F80E202C0D4
:10312000819391509923E1F7C20ED11CAA2319F083
:10313000F601A1936F01F6013196E2FE08C089E421
:10314000D6018C938EE411968C9386E407C089E6B1
:10315000D6018C938EE611968C9386E68183329607
:10316000DF01892F20E202C02D9381508823E1F7EF
:10317000E90FF11D10822EEF3FEFAFC016161706B4
:103180001CF041E050E003C0AB014F5F5F4FAA204D
:1031900019F480E090E003C08A2D90E0019620E0D1
:1031A00030E0AA2311F021E030E0240F351F280F72
:1031B000391F812F90E02817390714F020E002C052
:1031C000121B212F4B2D50E0CA0180719070B4FC6E
:1031D0000DC0B3FC0BC0F601322F40E202C0419398
:1031E00031503323E1F7C20ED11C01C0322FAA2384
:1031F00019F0F601A1936F01892B11F0132F0AC06A
:10320000F601132F80E302C0819311501123E1F7DF
:10321000C30ED11C092D060FBA8090E1892E912C86
:103220008E209F20E4FE04C0F1E3BF1609F4015094
:10323000101614F001E003C0093008F008E09B010B
:1032400077FF02C020E030E0CB010196821B930B98
:10325000FE013196E80FF91F8EE2F82E3B01601A4D
:1032600071088A2D90E044275527481B590B8FEF92
:103270002F3F380719F4D601FD926D0162177307CD
:103280002CF06216730614F4808101C080E3215093
:10329000304031962417350724F0D6018D936D0107
:1032A000E6CF2617370749F4B5E3BB1528F0BB1660
:1032B00021F48114910409F481E3F6018193D6018C
:1032C000812F90E202C09C93815011968823D9F7F8
:1032D000E10FF11D108220E030E0C9012996EEE0F7
:1032E0000C94C617283008F027E03327DA01990F2D
:1032F000311D87FD916000966105710539F43260DA
:103300002E5F3D9330E32A95E1F708959F3F30F01B
:1033100080387105610509F03C5F3C5F3D93913059
:1033200008F08068911DDF93CF931F930F93FF9256
:10333000EF92192F987F9695E92F96959695E90F1C
:10334000FF27E255FF4F99273327EE24FF24A701DB
:10335000E70105900894079428F4360FE71EF81E3D
:10336000491F511D660F771F881F991F0694A1F7EB
:103370000590079428F4E70EF81E491F561FC11D3B
:10338000770F881F991F661F0694A1F70590079471
:1033900028F4F80E491F561FC71FD11D880F991F0B
:1033A000661F771F0694A1F70590079420F4490F34
:1033B000561FC71FD81F990F661F771F881F0694B7
:1033C000A9F784911095177041F0D695C795579538
:1033D0004795F794E7941A95C1F7E4E5F0E068940F
:1033E0001590159135916591959105907FE27395B2
:1033F000E118F10A430B560BC90BD009C0F7E10CD9
:10340000F11E431F561FC91FD01D7EF4703311F4E7
:103410008A95E6CFE894015030F0080F0AF40027AF
:10342000021708F4202F2395022F7A3328F079E32E
:103430007D932A95E9F710C07D932A9589F6069425
:1034400097956795379517951794E118F10A430BEF
:10345000560BC90BD00998F023957E9173957A335A
:1034600008F070E37C932013B8F77E9170617D9330
:1034700030F0839571E37D9370E32A95E1F7112491
:10348000EF90FF900F911F91CF91DF91992787FDCA
:0834900090950895F894FFCF18
:10349800556C747261736F6E69630020636D2020D0
:1034A800200044697374203D2000000000000000E3
:1034B80000000001020203030303040404040404DB
:1034C80004040505050505050505050505050505A6
:1034D8000505060606060606060606060606060686
:1034E8000606060606060606060606060606060674
:1034F8000606070707070707070707070707070756
:103508000707070707070707070707070707070743
:103518000707070707070707070707070707070733
:103528000707070707070707070707070707070723
:103538000707080808080808080808080808080805
:1035480008080808080808080808080808080808F3
:1035580008080808080808080808080808080808E3
:1035680008080808080808080808080808080808D3
:1035780008080808080808080808080808080808C3
:1035880008080808080808080808080808080808B3
:1035980008080808080808080808080808080808A3
:1035A8000808080808080808080808080808080893
:0235B800080801
:00000001FF
